:100000000C945D000C9485000C9485000C94850084
:100010000C9485000C9485000C9485000C9485004C
:100020000C9485000C9485000C9485000C9485003C
:100030000C9485000C9485000C9485000C9485002C
:100040000C94AA030C9485000C9478030C9452032E
:100050000C9485000C9485000C9485000C9485000C
:100060000C9485000C94850000000008000201003B
:100070000003040700000000000000000000000072
:10008000250028002B0000000000240027002A0083
:10009000040404040404040402020202020203032E
:1000A0000303030301020408102040800102040836
:1000B0001020010204081020F40311241FBECFEF0A
:1000C000D8E0DEBFCDBF11E0A0E0B1E0E4E4F1E1B3
:1000D00002C005900D92AA3CB107D9F722E0AAEC24
:1000E000B1E001C01D92A038B207E1F710E0CDE504
:1000F000D0E004C02197FE010E949A08CC35D107B8
:10010000C9F70E9443040C94A0080C94000090E0EE
:10011000FC01EC55FF4F249180579F4FFC018491C7
:10012000882399F090E0880F991FFC01EA57FF4F50
:10013000A591B491FC01E458FF4F859194918FB73C
:10014000F894EC91E22BEC938FBF0895AF92BF929D
:10015000CF92DF92EF92FF920F931F93CF93DF9393
:100160006C017B018B01040F151FEB015E01AE18C2
:10017000BF08C017D10759F06991D601ED91FC91E4
:100180000190F081E02DC6010995892B79F7C50111
:10019000DF91CF911F910F91FF90EF90DF90CF9063
:1001A000BF90AF900895FC01538D448D252F30E012
:1001B000842F90E0821B930B541710F0CF96089574
:1001C00001970895FC01918D828D981761F0A28DA1
:1001D000AE0FBF2FB11D5D968C91928D9F5F9F7367
:1001E000928F90E008958FEF9FEF0895FC01918D1D
:1001F000828D981731F0828DE80FF11D858D90E08A
:1002000008958FEF9FEF0895FC01918D228D892F26
:1002100090E0805C9F4F821B91098F73992708950E
:1002200083ED91E00E94040121E0892B09F420E094
:10023000822F089580E090E0892B29F00E94100120
:1002400081110C9400000895FC01A48DA80FB92F12
:10025000B11DA35ABF4F2C91848D90E001968F73EE
:100260009927848FA689B7892C93A089B1898C910D
:10027000837080648C93938D848D981306C002885C
:10028000F389E02D80818F7D80830895EF92FF9226
:100290000F931F93CF93DF93EC0181E0888F9B8DA9
:1002A0008C8D98131AC0E889F989808185FF15C063
:1002B0009FB7F894EE89FF896083E889F989808186
:1002C0008370806480839FBF81E090E0DF91CF9155
:1002D0001F910F91FF90EF900895F62E0B8D10E077
:1002E0000F5F1F4F0F731127E02E8C8D8E110CC0E6
:1002F0000FB607FCFACFE889F989808185FFF5CF31
:10030000CE010E942401F1CFEB8DEC0FFD2FF11DEA
:10031000E35AFF4FF0829FB7F8940B8FEA89FB896D
:1003200080818062CFCFCF93DF93EC01888D8823CB
:10033000B9F0AA89BB89E889F9898C9185FD03C048
:10034000808186FD0DC00FB607FCF7CF8C9185FF2D
:10035000F2CF808185FFEDCFCE010E942401E9CF4D
:10036000DF91CF91089590E0FC01E859FF4F24916F
:10037000FC01EC55FF4F3491FC01E057FF4FE49135
:10038000EE23C9F0222339F0233001F1A8F4213003
:1003900019F1223029F1F0E0EE0FFF1FE458FF4F72
:1003A000A591B4918FB7F894EC91611126C0309566
:1003B0003E233C938FBF08952730A9F02830C9F021
:1003C000243049F7809180008F7D03C080918000A8
:1003D0008F7780938000DFCF84B58F7784BDDBCFAC
:1003E00084B58F7DFBCF8091B0008F778093B00074
:1003F000D2CF8091B0008F7DF9CF3E2BDACFE3E7EB
:10040000F0E0E491E33039F160F4E130D1F0E23032
:10041000E9F060E0803891050CF061E08BE00C942D
:10042000B301E73011F1E83041F1E43091F7209168
:10043000800020622093800090938B0080938A003C
:10044000089594B5906894BD87BD089594B5906261
:1004500094BD88BD0895209180002068209380007D
:10046000909389008093880008959091B0009068DF
:100470009093B0008093B30008959091B000906283
:100480009093B0008093B4000895806480937C00C2
:1004900080917A00806480937A0080917A0086FD52
:1004A000FCCF809178009091790008953FB7F8943F
:1004B0008091CB019091CC01A091CD01B091CE0162
:1004C00026B5A89B05C02F3F19F00196A11DB11DAF
:1004D0003FBFBA2FA92F982F8827BC01CD01620FEB
:1004E000711D811D911D42E0660F771F881F991FA6
:1004F0004A95D1F708958F929F92AF92BF92CF9273
:10050000DF92EF92FF924B015C010E9456026B0159
:100510007C010E9456026C197D098E099F09683E74
:10052000734081059105A8F321E0821A9108A10882
:10053000B10888EEC80E83E0D81EE11CF11C8114BE
:100540009104A104B10429F7FF90EF90DF90CF90C0
:10055000BF90AF909F908F90089561E088E00E94D7
:10056000B3016AEF70E080E090E00E947B0260E0FF
:1005700088E00E94B3016AEF70E080E090E00C94A4
:100580007B0261E088E00E94B30168EE73E080E0E6
:1005900090E00E947B0260E088E00E94B3016AEF75
:1005A00070E080E090E00C947B028AE00E9487007B
:1005B00060E08AE00C94B30189E00E94870060E06B
:1005C00089E00C94B30185E00E944502BC01990FBB
:1005D000880B990B0E94780720E030E046E953E44D
:1005E0000E942D0820E030EC4FE754E40E94CE0634
:1005F000089584E00E944502BC01990F880B990B75
:100600000E94780720E030E048EC52E40E942D0878
:1006100020E030EC4FE754E40E94CE060E944007F1
:10062000072E000C880B990B0E94780720E030E021
:1006300048E251E40E945C0620E030E040E150E4F2
:100640000E94CE0620E030E048EC52E40E942D08E3
:1006500020E030E0A9010E945D060E944007CB0126
:1006600077FF02C090E080E00895CF93DF93FC0114
:1006700001900020E9F73197AF01481B590BBC01ED
:1006800083ED91E00E94A600EC0142E050E062E1BF
:1006900071E083ED91E00E94A6008C0F9D1FDF9119
:1006A000CF9108951F920F920FB60F9211242F939E
:1006B0003F934F935F936F937F938F939F93AF93EA
:1006C000BF93EF93FF9383ED91E00E942401FF918C
:1006D000EF91BF91AF919F918F917F916F915F91BA
:1006E0004F913F912F910F900FBE0F901F90189533
:1006F0001F920F920FB60F9211242F938F939F93F7
:10070000EF93FF93E091E301F091E4018081E091A8
:10071000E901F091EA0182FD1BC090818091EC011A
:100720008F5F8F732091ED01821741F0E091EC0112
:10073000F0E0ED52FE4F958F8093EC01FF91EF9129
:100740009F918F912F910F900FBE0F901F90189532
:100750008081F4CF1F920F920FB60F9211242F9326
:100760003F938F939F93AF93BF938091CF019091CD
:10077000D001A091D101B091D2013091CA0123E002
:10078000230F2D3758F50196A11DB11D2093CA01E5
:100790008093CF019093D001A093D101B093D20167
:1007A0008091CB019091CC01A091CD01B091CE016F
:1007B0000196A11DB11D8093CB019093CC01A09314
:1007C000CD01B093CE01BF91AF919F918F913F9199
:1007D0002F910F900FBE0F901F90189526E8230FB2
:1007E0000296A11DB11DD2CFCF93DF93E3EDF1E0CF
:1007F0001382128288EE93E0A0E0B0E084839583B8
:10080000A683B78384E091E09183808385EC90E0B8
:100810009587848784EC90E09787868780EC90E0CA
:10082000918B808B81EC90E0938B828B82EC90E0BB
:10083000958B848B86EC90E0978B868B118E128E35
:10084000138E148EC0E7D2E088E090E0998388830D
:100850000E94870088EC90E0A0E0B0E08A839B8350
:10086000AC83BD8388E893E1A0E0B0E08E839F83F2
:10087000A887B9871B861A861C861D861E861F863A
:10088000DF91CF910895789484B5826084BD84B55A
:10089000816084BD85B5826085BD85B5816085BD7B
:1008A00080916E00816080936E0010928100809133
:1008B00081008260809381008091810081608093BB
:1008C0008100809180008160809380008091B100E0
:1008D00084608093B1008091B00081608093B0000B
:1008E00080917A00846080937A0080917A0082609F
:1008F00080937A0080917A00816080937A00809161
:100900007A00806880937A001092C10088E00E948B
:10091000870089E00E94870060E089E00E94B301BF
:100920008BE00E9487008BE00E9487008EEF90E0B2
:100930000E94FF0161E088E00E94B30168E873E172
:1009400080E090E00E947B0260E088E00E94B301BA
:1009500068EE73E080E090E00E947B02E091E301AA
:10096000F091E40182E08083E091DF01F091E00109
:100970001082E091E101F091E2018FEC808310920E
:10098000EB01E091E701F091E80186E08083E091DE
:10099000E501F091E601808180618083E091E501CD
:1009A000F091E601808188608083E091E501F0911B
:1009B000E601808180688083E091E501F091E601A5
:1009C00080818F7D808385E191E00E94350368EE10
:1009D00073E080E090E00E947B02C0E0D0E001E0A4
:1009E00010E00E94F90244974CF183E00E94450216
:1009F000813293401CF589E00E94870061E089E024
:100A00000E94B3018BE00E94870080E890E00E9482
:100A1000FF010E94F9024597099708F049C00E941A
:100A2000AD020E94C1020E94AD020E94C1020E945A
:100A3000D50281E891E00E94350307C10E94F902C6
:100A4000449704F183E00E94450281329340D4F040
:100A50000E94D5020E94DC028BE00E9487008EEF8C
:100A600090E00E94FF010E94AD020E94AD020E9430
:100A7000AD020E94AD020E94C10288E191E00E9495
:100A80003503AFCF0E94C1020E94C1020E94D5026D
:100A90000E94DC028BE00E94870060E08BE00E94F5
:100AA000B3018EE491E00E9435038CE691E0E7CF3C
:100AB0000E94E30220E030E040E753E40E9428086F
:100AC00018166CF40E94C1020E94AD020E94C1027D
:100AD0000E94AD020E94D5028FE891E0ACCF0E9447
:100AE000E3026B017C0120E030E046E653E40E9423
:100AF000280887FF25C00E94E30220E030E04EE393
:100B000053E40E94C90687FF36C00E94E30220E03A
:100B100030E046E153E40E94C906181664F568E81F
:100B200073E180E090E00E947B020E94AD020E948F
:100B3000C1020E94C1020E94D50287EA91E07BCFE8
:100B400020E030E040E753E4C701B6010E94C90647
:100B500018168CF260E177E280E090E00E947B0260
:100B60000E94C1020E94C1020E94AD020E94D502F1
:100B70008CE991E060CF0E94E30220E030E046E1A2
:100B800053E40E94C90618160CF049C02FB7F89418
:100B90008091CF019091D001A091D101B091D2016B
:100BA0002FBF20917A0230917B022130310509F06C
:100BB00057C040917C0250917D0260917E027091FD
:100BC0007F026C017D01C41AD50AE60AF70A40913A
:100BD0007202509173026091740270917502C41692
:100BE000D506E606F70688F010927B0210927A028C
:100BF00080937C0290937D02A0937E02B0937F024B
:100C000060E0809170020E94B3018AE00E94870038
:100C100061E08AE00E94B30180EC91E00CCF0E9479
:100C2000C1020E94C1020E94C1020E94C1020E9430
:100C3000AD020E94D50281EB91E00E94350368E885
:100C400073E180E090E00E947B02209709F4C9CE16
:100C50000E941001882309F4C4CE0E940000C1CE76
:100C6000232B99F640917C0250917D0260917E0287
:100C700070917F026C017D01C41AD50AE60AF70A59
:100C800040917602509177026091780270917902DA
:100C9000C416D506E606F70608F4B7CF10937B0214
:100CA00000937A0280937C0290937D02A0937E024F
:100CB000B0937F0261E0A5CF5058BB27AA270E94BE
:100CC00074060C94EE070E94E00738F00E94E707D4
:100CD00020F039F49F3F19F426F40C94DD070EF44C
:100CE000E095E7FB0C94D707E92F0E94FF0758F324
:100CF000BA17620773078407950720F079F4A6F501
:100D00000C9421080EF4E0950B2EBA2FA02D0B01A8
:100D1000B90190010C01CA01A0011124FF27591B40
:100D200099F0593F50F4503E68F11A16F040A22F46
:100D3000232F342F4427585FF3CF469537952795B7
:100D4000A795F0405395C9F77EF41F16BA0B620BB6
:100D5000730B840BBAF09150A1F0FF0FBB1F661FFD
:100D6000771F881FC2F70EC0BA0F621F731F841F40
:100D700048F4879577956795B795F7959E3F08F066
:100D8000B0CF9395880F08F09927EE0F9795879528
:100D900008950E94B30708F481E008950E94E206D6
:100DA0000C94EE070E94E70758F00E94E00740F01D
:100DB00029F45F3F29F00C94D70751110C942208B5
:100DC0000C94DD070E94FF0768F39923B1F35523C4
:100DD00091F3951B550BBB27AA276217730784074E
:100DE00038F09F5F5F4F220F331F441FAA1FA9F3E4
:100DF00035D00E2E3AF0E0E832D091505040E695D2
:100E0000001CCAF72BD0FE2F29D0660F771F881F32
:100E1000BB1F261737074807AB07B0E809F0BB0B25
:100E2000802DBF01FF2793585F4F3AF09E3F510539
:100E300078F00C94D7070C9422085F3FE4F3983EB7
:100E4000D4F3869577956795B795F7959F5FC9F722
:100E5000880F911D9695879597F90895E1E0660FA3
:100E6000771F881FBB1F621773078407BA0720F01C
:100E7000621B730B840BBA0BEE1F88F7E095089585
:100E80000E9447076894B1110C94220808950E94AB
:100E9000070888F09F5798F0B92F9927B751B0F0FD
:100EA000E1F0660F771F881F991F1AF0BA95C9F7EE
:100EB00014C0B13091F00E942108B1E008950C9463
:100EC0002108672F782F8827B85F39F0B93FCCF316
:100ED000869577956795B395D9F73EF4909580956B
:100EE000709561957F4F8F4F9F4F0895E89409C08B
:100EF00097FB3EF490958095709561957F4F8F4F4D
:100F00009F4F9923A9F0F92F96E9BB279395F69562
:100F1000879577956795B795F111F8CFFAF4BB0FE0
:100F200011F460FF1BC06F5F7F4F8F4F9F4F16C044
:100F3000882311F096E911C0772321F09EE8872FCE
:100F4000762F05C0662371F096E8862F70E060E08A
:100F50002AF09A95660F771F881FDAF7880F969503
:100F6000879597F90895990F0008550FAA0BE0E8A7
:100F7000FEEF16161706E807F907C0F0121613065B
:100F8000E407F50798F0621B730B840B950B39F49B
:100F90000A2661F0232B242B252B21F408950A2601
:100FA00009F4A140A6958FEF811D811D089597F941
:100FB0009F6780E870E060E008959FEF80EC0895FF
:100FC00000240A9416161706180609060895002428
:100FD0000A9412161306140605060895092E0394A2
:100FE000000C11F4882352F0BB0F40F4BF2B11F416
:100FF00060FF04C06F5F7F4F8F4F9F4F089557FD75
:101000009058440F551F59F05F3F71F04795880F76
:1010100097FB991F61F09F3F79F08795089512160D
:1010200013061406551FF2CF4695F1DF08C01616B9
:1010300017061806991FF1CF86957105610508946A
:101040000895E894BB2766277727CB0197F9089581
:101050000E94B30708F48FEF08950E9440080C9493
:10106000EE070E94E00738F00E94E70720F0952382
:1010700011F00C94D7070C94DD0711240C9422086E
:101080000E94FF0770F3959FC1F3950F50E0551F25
:10109000629FF001729FBB27F00DB11D639FAA27CD
:1010A000F00DB11DAA1F649F6627B00DA11D661F1C
:1010B000829F2227B00DA11D621F739FB00DA11D3D
:1010C000621F839FA00D611D221F749F3327A00DF7
:1010D000611D231F849F600D211D822F762F6A2F93
:1010E00011249F5750409AF0F1F088234AF0EE0FF8
:1010F000FF1FBB1F661F771F881F91505040A9F725
:101100009E3F510580F00C94D7070C9422085F3F56
:10111000E4F3983ED4F3869577956795B795F79560
:10112000E7959F5FC1F7FE2B880F911D96958795D8
:1011300097F90895EE0FFF1F0590F491E02D0994A3
:04114000F894FFCF51
:10114400000000004601A600D30093010401E20060
:10115400F6000D0A0068690054656D70657261746B
:1011640075726520697320686967682C20696E76DA
:101174006572746572207475726E6564206F66663C
:1011840020616E6420636F6F6C696E672100426139
:101194007474657279206973206174206372697450
:1011A4006963616C206C6576656C21005475726EA0
:1011B400696E67206F666620696E76657274657203
:1011C40000756E646572766F6C7461676521006F7B
:1011D400766572766F6C746167652100756E6465FF
:1011E400726C6F616421006F7665726C6F6164214B
:1011F4000073686F72742063697263756974210087
:0A120400776F726B696E67210000BE
:00000001FF
